{
  "contractName": "UserSBT",
  "abi": [
    {
      "inputs": [],
      "stateMutability": "nonpayable",
      "type": "constructor"
    },
    {
      "anonymous": false,
      "inputs": [
        {
          "indexed": true,
          "internalType": "address",
          "name": "owner",
          "type": "address"
        },
        {
          "indexed": true,
          "internalType": "address",
          "name": "approved",
          "type": "address"
        },
        {
          "indexed": true,
          "internalType": "uint256",
          "name": "tokenId",
          "type": "uint256"
        }
      ],
      "name": "Approval",
      "type": "event"
    },
    {
      "anonymous": false,
      "inputs": [
        {
          "indexed": true,
          "internalType": "address",
          "name": "owner",
          "type": "address"
        },
        {
          "indexed": true,
          "internalType": "address",
          "name": "operator",
          "type": "address"
        },
        {
          "indexed": false,
          "internalType": "bool",
          "name": "approved",
          "type": "bool"
        }
      ],
      "name": "ApprovalForAll",
      "type": "event"
    },
    {
      "anonymous": false,
      "inputs": [
        {
          "indexed": false,
          "internalType": "uint256",
          "name": "_fromTokenId",
          "type": "uint256"
        },
        {
          "indexed": false,
          "internalType": "uint256",
          "name": "_toTokenId",
          "type": "uint256"
        }
      ],
      "name": "BatchMetadataUpdate",
      "type": "event"
    },
    {
      "anonymous": false,
      "inputs": [
        {
          "indexed": false,
          "internalType": "uint256",
          "name": "_tokenId",
          "type": "uint256"
        }
      ],
      "name": "MetadataUpdate",
      "type": "event"
    },
    {
      "anonymous": false,
      "inputs": [
        {
          "indexed": true,
          "internalType": "address",
          "name": "previousOwner",
          "type": "address"
        },
        {
          "indexed": true,
          "internalType": "address",
          "name": "newOwner",
          "type": "address"
        }
      ],
      "name": "OwnershipTransferred",
      "type": "event"
    },
    {
      "anonymous": false,
      "inputs": [
        {
          "indexed": false,
          "internalType": "address",
          "name": "account",
          "type": "address"
        }
      ],
      "name": "Paused",
      "type": "event"
    },
    {
      "anonymous": false,
      "inputs": [
        {
          "indexed": true,
          "internalType": "address",
          "name": "from",
          "type": "address"
        },
        {
          "indexed": true,
          "internalType": "address",
          "name": "to",
          "type": "address"
        },
        {
          "indexed": true,
          "internalType": "uint256",
          "name": "tokenId",
          "type": "uint256"
        }
      ],
      "name": "Transfer",
      "type": "event"
    },
    {
      "anonymous": false,
      "inputs": [
        {
          "indexed": false,
          "internalType": "address",
          "name": "account",
          "type": "address"
        }
      ],
      "name": "Unpaused",
      "type": "event"
    },
    {
      "anonymous": false,
      "inputs": [
        {
          "indexed": true,
          "internalType": "uint256",
          "name": "id",
          "type": "uint256"
        },
        {
          "indexed": false,
          "internalType": "string",
          "name": "name",
          "type": "string"
        },
        {
          "indexed": false,
          "internalType": "address",
          "name": "owner",
          "type": "address"
        },
        {
          "indexed": false,
          "internalType": "bool",
          "name": "locked",
          "type": "bool"
        }
      ],
      "name": "UserCreated",
      "type": "event"
    },
    {
      "inputs": [
        {
          "internalType": "address",
          "name": "to",
          "type": "address"
        },
        {
          "internalType": "uint256",
          "name": "tokenId",
          "type": "uint256"
        }
      ],
      "name": "approve",
      "outputs": [],
      "stateMutability": "nonpayable",
      "type": "function"
    },
    {
      "inputs": [
        {
          "internalType": "address",
          "name": "owner",
          "type": "address"
        }
      ],
      "name": "balanceOf",
      "outputs": [
        {
          "internalType": "uint256",
          "name": "",
          "type": "uint256"
        }
      ],
      "stateMutability": "view",
      "type": "function",
      "constant": true
    },
    {
      "inputs": [],
      "name": "contractOwner",
      "outputs": [
        {
          "internalType": "address",
          "name": "",
          "type": "address"
        }
      ],
      "stateMutability": "view",
      "type": "function",
      "constant": true
    },
    {
      "inputs": [
        {
          "internalType": "uint256",
          "name": "tokenId",
          "type": "uint256"
        }
      ],
      "name": "getApproved",
      "outputs": [
        {
          "internalType": "address",
          "name": "",
          "type": "address"
        }
      ],
      "stateMutability": "view",
      "type": "function",
      "constant": true
    },
    {
      "inputs": [
        {
          "internalType": "address",
          "name": "owner",
          "type": "address"
        },
        {
          "internalType": "address",
          "name": "operator",
          "type": "address"
        }
      ],
      "name": "isApprovedForAll",
      "outputs": [
        {
          "internalType": "bool",
          "name": "",
          "type": "bool"
        }
      ],
      "stateMutability": "view",
      "type": "function",
      "constant": true
    },
    {
      "inputs": [],
      "name": "name",
      "outputs": [
        {
          "internalType": "string",
          "name": "",
          "type": "string"
        }
      ],
      "stateMutability": "view",
      "type": "function",
      "constant": true
    },
    {
      "inputs": [],
      "name": "owner",
      "outputs": [
        {
          "internalType": "address",
          "name": "",
          "type": "address"
        }
      ],
      "stateMutability": "view",
      "type": "function",
      "constant": true
    },
    {
      "inputs": [
        {
          "internalType": "uint256",
          "name": "tokenId",
          "type": "uint256"
        }
      ],
      "name": "ownerOf",
      "outputs": [
        {
          "internalType": "address",
          "name": "",
          "type": "address"
        }
      ],
      "stateMutability": "view",
      "type": "function",
      "constant": true
    },
    {
      "inputs": [],
      "name": "paused",
      "outputs": [
        {
          "internalType": "bool",
          "name": "",
          "type": "bool"
        }
      ],
      "stateMutability": "view",
      "type": "function",
      "constant": true
    },
    {
      "inputs": [],
      "name": "renounceOwnership",
      "outputs": [],
      "stateMutability": "nonpayable",
      "type": "function"
    },
    {
      "inputs": [
        {
          "internalType": "address",
          "name": "from",
          "type": "address"
        },
        {
          "internalType": "address",
          "name": "to",
          "type": "address"
        },
        {
          "internalType": "uint256",
          "name": "tokenId",
          "type": "uint256"
        }
      ],
      "name": "safeTransferFrom",
      "outputs": [],
      "stateMutability": "nonpayable",
      "type": "function"
    },
    {
      "inputs": [
        {
          "internalType": "address",
          "name": "from",
          "type": "address"
        },
        {
          "internalType": "address",
          "name": "to",
          "type": "address"
        },
        {
          "internalType": "uint256",
          "name": "tokenId",
          "type": "uint256"
        },
        {
          "internalType": "bytes",
          "name": "data",
          "type": "bytes"
        }
      ],
      "name": "safeTransferFrom",
      "outputs": [],
      "stateMutability": "nonpayable",
      "type": "function"
    },
    {
      "inputs": [
        {
          "internalType": "address",
          "name": "operator",
          "type": "address"
        },
        {
          "internalType": "bool",
          "name": "approved",
          "type": "bool"
        }
      ],
      "name": "setApprovalForAll",
      "outputs": [],
      "stateMutability": "nonpayable",
      "type": "function"
    },
    {
      "inputs": [
        {
          "internalType": "bytes4",
          "name": "interfaceId",
          "type": "bytes4"
        }
      ],
      "name": "supportsInterface",
      "outputs": [
        {
          "internalType": "bool",
          "name": "",
          "type": "bool"
        }
      ],
      "stateMutability": "view",
      "type": "function",
      "constant": true
    },
    {
      "inputs": [],
      "name": "symbol",
      "outputs": [
        {
          "internalType": "string",
          "name": "",
          "type": "string"
        }
      ],
      "stateMutability": "view",
      "type": "function",
      "constant": true
    },
    {
      "inputs": [
        {
          "internalType": "uint256",
          "name": "tokenId",
          "type": "uint256"
        }
      ],
      "name": "tokenURI",
      "outputs": [
        {
          "internalType": "string",
          "name": "",
          "type": "string"
        }
      ],
      "stateMutability": "view",
      "type": "function",
      "constant": true
    },
    {
      "inputs": [
        {
          "internalType": "address",
          "name": "from",
          "type": "address"
        },
        {
          "internalType": "address",
          "name": "to",
          "type": "address"
        },
        {
          "internalType": "uint256",
          "name": "tokenId",
          "type": "uint256"
        }
      ],
      "name": "transferFrom",
      "outputs": [],
      "stateMutability": "nonpayable",
      "type": "function"
    },
    {
      "inputs": [
        {
          "internalType": "address",
          "name": "newOwner",
          "type": "address"
        }
      ],
      "name": "transferOwnership",
      "outputs": [],
      "stateMutability": "nonpayable",
      "type": "function"
    },
    {
      "inputs": [
        {
          "internalType": "address",
          "name": "to",
          "type": "address"
        },
        {
          "internalType": "string",
          "name": "name",
          "type": "string"
        },
        {
          "internalType": "string",
          "name": "tokenUri",
          "type": "string"
        },
        {
          "internalType": "uint256",
          "name": "id",
          "type": "uint256"
        }
      ],
      "name": "mint",
      "outputs": [],
      "stateMutability": "nonpayable",
      "type": "function"
    },
    {
      "inputs": [
        {
          "internalType": "address",
          "name": "owner",
          "type": "address"
        }
      ],
      "name": "userExists",
      "outputs": [
        {
          "internalType": "bool",
          "name": "",
          "type": "bool"
        }
      ],
      "stateMutability": "view",
      "type": "function",
      "constant": true
    },
    {
      "inputs": [
        {
          "internalType": "address",
          "name": "owner",
          "type": "address"
        },
        {
          "internalType": "string",
          "name": "name",
          "type": "string"
        },
        {
          "internalType": "string",
          "name": "ipfsHash",
          "type": "string"
        },
        {
          "internalType": "uint256",
          "name": "id",
          "type": "uint256"
        }
      ],
      "name": "updateMetadataHash",
      "outputs": [],
      "stateMutability": "nonpayable",
      "type": "function"
    },
    {
      "inputs": [
        {
          "internalType": "address",
          "name": "owner",
          "type": "address"
        }
      ],
      "name": "lockToken",
      "outputs": [],
      "stateMutability": "nonpayable",
      "type": "function"
    },
    {
      "inputs": [
        {
          "internalType": "address",
          "name": "owner",
          "type": "address"
        }
      ],
      "name": "unlockToken",
      "outputs": [],
      "stateMutability": "nonpayable",
      "type": "function"
    },
    {
      "inputs": [
        {
          "internalType": "address",
          "name": "owner",
          "type": "address"
        }
      ],
      "name": "getTokenData",
      "outputs": [
        {
          "components": [
            {
              "internalType": "uint256",
              "name": "id",
              "type": "uint256"
            },
            {
              "internalType": "string",
              "name": "name",
              "type": "string"
            },
            {
              "internalType": "string",
              "name": "ipfsHash",
              "type": "string"
            },
            {
              "internalType": "bool",
              "name": "locked",
              "type": "bool"
            },
            {
              "internalType": "address",
              "name": "owner",
              "type": "address"
            },
            {
              "internalType": "uint256",
              "name": "createdAt",
              "type": "uint256"
            }
          ],
          "internalType": "struct UserSBT.TokenData",
          "name": "",
          "type": "tuple"
        }
      ],
      "stateMutability": "view",
      "type": "function",
      "constant": true
    },
    {
      "inputs": [],
      "name": "pause",
      "outputs": [],
      "stateMutability": "nonpayable",
      "type": "function"
    },
    {
      "inputs": [],
      "name": "unpause",
      "outputs": [],
      "stateMutability": "nonpayable",
      "type": "function"
    }
  ],
  "bytecode": "0x60806040523480156200001157600080fd5b506040518060400160405280601081526020017f536f756c20426f756e6420546f6b656e000000000000000000000000000000008152506040518060400160405280600781526020017f55736572534254000000000000000000000000000000000000000000000000008152506200009e620000926200012560201b60201c565b6200012d60201b60201c565b60008060146101000a81548160ff0219169083151502179055508160019081620000c991906200046b565b508060029081620000db91906200046b565b50505033600a60006101000a81548173ffffffffffffffffffffffffffffffffffffffff021916908373ffffffffffffffffffffffffffffffffffffffff16021790555062000552565b600033905090565b60008060009054906101000a900473ffffffffffffffffffffffffffffffffffffffff169050816000806101000a81548173ffffffffffffffffffffffffffffffffffffffff021916908373ffffffffffffffffffffffffffffffffffffffff1602179055508173ffffffffffffffffffffffffffffffffffffffff168173ffffffffffffffffffffffffffffffffffffffff167f8be0079c531659141344cd1fd0a4f28419497f9722a3daafe3b4186f6b6457e060405160405180910390a35050565b600081519050919050565b7f4e487b7100000000000000000000000000000000000000000000000000000000600052604160045260246000fd5b7f4e487b7100000000000000000000000000000000000000000000000000000000600052602260045260246000fd5b600060028204905060018216806200027357607f821691505b6020821081036200028957620002886200022b565b5b50919050565b60008190508160005260206000209050919050565b60006020601f8301049050919050565b600082821b905092915050565b600060088302620002f37fffffffffffffffffffffffffffffffffffffffffffffffffffffffffffffffff82620002b4565b620002ff8683620002b4565b95508019841693508086168417925050509392505050565b6000819050919050565b6000819050919050565b60006200034c62000346620003408462000317565b62000321565b62000317565b9050919050565b6000819050919050565b62000368836200032b565b62000380620003778262000353565b848454620002c1565b825550505050565b600090565b6200039762000388565b620003a48184846200035d565b505050565b5b81811015620003cc57620003c06000826200038d565b600181019050620003aa565b5050565b601f8211156200041b57620003e5816200028f565b620003f084620002a4565b8101602085101562000400578190505b620004186200040f85620002a4565b830182620003a9565b50505b505050565b600082821c905092915050565b6000620004406000198460080262000420565b1980831691505092915050565b60006200045b83836200042d565b9150826002028217905092915050565b6200047682620001f1565b67ffffffffffffffff811115620004925762000491620001fc565b5b6200049e82546200025a565b620004ab828285620003d0565b600060209050601f831160018114620004e35760008415620004ce578287015190505b620004da85826200044d565b8655506200054a565b601f198416620004f3866200028f565b60005b828110156200051d57848901518255600182019150602085019450602081019050620004f6565b868310156200053d578489015162000539601f8916826200042d565b8355505b6001600288020188555050505b505050505050565b613f9480620005626000396000f3fe608060405234801561001057600080fd5b506004361061018e5760003560e01c8063715018a6116100de5780639ef2017b11610097578063c87b56dd11610071578063c87b56dd14610445578063ce606ee014610475578063e985e9c514610493578063f2fde38b146104c35761018e565b80639ef2017b146103f1578063a22cb4651461040d578063b88d4fde146104295761018e565b8063715018a614610369578063782305ba146103735780638456cb591461038f578063853d42ad146103995780638da5cb5b146103b557806395d89b41146103d35761018e565b806313ff7e9f1161014b57806342842e0e1161012557806342842e0e146102cf5780635c975abb146102eb5780636352211e1461030957806370a08231146103395761018e565b806313ff7e9f1461027957806323b872dd146102a95780633f4ba83a146102c55761018e565b806301ffc9a71461019357806306fdde03146101c3578063081812fc146101e1578063095ea7b3146102115780630e666e491461022d57806310693fcd1461025d575b600080fd5b6101ad60048036038101906101a8919061280f565b6104df565b6040516101ba9190612857565b60405180910390f35b6101cb610540565b6040516101d89190612902565b60405180910390f35b6101fb60048036038101906101f6919061295a565b6105d2565b60405161020891906129c8565b60405180910390f35b61022b60048036038101906102269190612a0f565b610618565b005b61024760048036038101906102429190612a4f565b61072f565b6040516102549190612857565b60405180910390f35b61027760048036038101906102729190612a4f565b61078d565b005b610293600480360381019061028e9190612a4f565b610851565b6040516102a09190612b83565b60405180910390f35b6102c360048036038101906102be9190612ba5565b610af4565b005b6102cd610b54565b005b6102e960048036038101906102e49190612ba5565b610b66565b005b6102f3610b86565b6040516103009190612857565b60405180910390f35b610323600480360381019061031e919061295a565b610b9c565b60405161033091906129c8565b60405180910390f35b610353600480360381019061034e9190612a4f565b610c22565b6040516103609190612c07565b60405180910390f35b610371610cd9565b005b61038d60048036038101906103889190612d57565b610ced565b005b610397610e95565b005b6103b360048036038101906103ae9190612d57565b610ea7565b005b6103bd6110b9565b6040516103ca91906129c8565b60405180910390f35b6103db6110e2565b6040516103e89190612902565b60405180910390f35b61040b60048036038101906104069190612a4f565b611174565b005b61042760048036038101906104229190612e22565b611238565b005b610443600480360381019061043e9190612f03565b61124e565b005b61045f600480360381019061045a919061295a565b6112b0565b60405161046c9190612902565b60405180910390f35b61047d6113c2565b60405161048a91906129c8565b60405180910390f35b6104ad60048036038101906104a89190612f86565b6113e8565b6040516104ba9190612857565b60405180910390f35b6104dd60048036038101906104d89190612a4f565b61147c565b005b6000634906490660e01b7bffffffffffffffffffffffffffffffffffffffffffffffffffffffff1916827bffffffffffffffffffffffffffffffffffffffffffffffffffffffff191614806105395750610538826114ff565b5b9050919050565b60606001805461054f90612ff5565b80601f016020809104026020016040519081016040528092919081815260200182805461057b90612ff5565b80156105c85780601f1061059d576101008083540402835291602001916105c8565b820191906000526020600020905b8154815290600101906020018083116105ab57829003601f168201915b5050505050905090565b60006105dd826115e1565b6005600083815260200190815260200160002060009054906101000a900473ffffffffffffffffffffffffffffffffffffffff169050919050565b600061062382610b9c565b90508073ffffffffffffffffffffffffffffffffffffffff168373ffffffffffffffffffffffffffffffffffffffff1603610693576040517f08c379a000000000000000000000000000000000000000000000000000000000815260040161068a90613098565b60405180910390fd5b8073ffffffffffffffffffffffffffffffffffffffff166106b261162c565b73ffffffffffffffffffffffffffffffffffffffff1614806106e157506106e0816106db61162c565b6113e8565b5b610720576040517f08c379a00000000000000000000000000000000000000000000000000000000081526004016107179061312a565b60405180910390fd5b61072a8383611634565b505050565b60006107396116ed565b600960008373ffffffffffffffffffffffffffffffffffffffff1673ffffffffffffffffffffffffffffffffffffffff16815260200190815260200160002060009054906101000a900460ff169050919050565b6107956116ed565b6000600860008373ffffffffffffffffffffffffffffffffffffffff1673ffffffffffffffffffffffffffffffffffffffff1681526020019081526020016000209050600015158160030160009054906101000a900460ff16151514610830576040517f08c379a000000000000000000000000000000000000000000000000000000000815260040161082790613196565b60405180910390fd5b60018160030160006101000a81548160ff0219169083151502179055505050565b610859612755565b6108616116ed565b60011515600960008473ffffffffffffffffffffffffffffffffffffffff1673ffffffffffffffffffffffffffffffffffffffff16815260200190815260200160002060009054906101000a900460ff161515146108f4576040517f08c379a00000000000000000000000000000000000000000000000000000000081526004016108eb90613202565b60405180910390fd5b6000600860008473ffffffffffffffffffffffffffffffffffffffff1673ffffffffffffffffffffffffffffffffffffffff1681526020019081526020016000206040518060c00160405290816000820154815260200160018201805461095a90612ff5565b80601f016020809104026020016040519081016040528092919081815260200182805461098690612ff5565b80156109d35780601f106109a8576101008083540402835291602001916109d3565b820191906000526020600020905b8154815290600101906020018083116109b657829003601f168201915b505050505081526020016002820180546109ec90612ff5565b80601f0160208091040260200160405190810160405280929190818152602001828054610a1890612ff5565b8015610a655780601f10610a3a57610100808354040283529160200191610a65565b820191906000526020600020905b815481529060010190602001808311610a4857829003601f168201915b505050505081526020016003820160009054906101000a900460ff161515151581526020016003820160019054906101000a900473ffffffffffffffffffffffffffffffffffffffff1673ffffffffffffffffffffffffffffffffffffffff1673ffffffffffffffffffffffffffffffffffffffff168152602001600482015481525050905080915050919050565b610b05610aff61162c565b82611737565b610b44576040517f08c379a0000000000000000000000000000000000000000000000000000000008152600401610b3b90613294565b60405180910390fd5b610b4f8383836117cc565b505050565b610b5c611ac5565b610b64611b43565b565b610b818383836040518060200160405280600081525061124e565b505050565b60008060149054906101000a900460ff16905090565b600080610ba883611ba5565b9050600073ffffffffffffffffffffffffffffffffffffffff168173ffffffffffffffffffffffffffffffffffffffff1603610c19576040517f08c379a0000000000000000000000000000000000000000000000000000000008152600401610c1090613300565b60405180910390fd5b80915050919050565b60008073ffffffffffffffffffffffffffffffffffffffff168273ffffffffffffffffffffffffffffffffffffffff1603610c92576040517f08c379a0000000000000000000000000000000000000000000000000000000008152600401610c8990613392565b60405180910390fd5b600460008373ffffffffffffffffffffffffffffffffffffffff1673ffffffffffffffffffffffffffffffffffffffff168152602001908152602001600020549050919050565b610ce1611ac5565b610ceb6000611be2565b565b610cf56116ed565b610cfe81611ca6565b610d3d576040517f08c379a0000000000000000000000000000000000000000000000000000000008152600401610d34906133fe565b60405180910390fd5b6000600860008673ffffffffffffffffffffffffffffffffffffffff1673ffffffffffffffffffffffffffffffffffffffff1681526020019081526020016000209050600015158160030160009054906101000a900460ff16151514610dd8576040517f08c379a0000000000000000000000000000000000000000000000000000000008152600401610dcf9061346a565b60405180910390fd5b8473ffffffffffffffffffffffffffffffffffffffff168160030160019054906101000a900473ffffffffffffffffffffffffffffffffffffffff1673ffffffffffffffffffffffffffffffffffffffff1614610e6a576040517f08c379a0000000000000000000000000000000000000000000000000000000008152600401610e61906134d6565b60405180910390fd5b83816001019081610e7b91906136a2565b5082816002019081610e8d91906136a2565b505050505050565b610e9d611ac5565b610ea5611ce7565b565b610eaf6116ed565b60011515600960008673ffffffffffffffffffffffffffffffffffffffff1673ffffffffffffffffffffffffffffffffffffffff16815260200190815260200160002060009054906101000a900460ff16151503610f42576040517f08c379a0000000000000000000000000000000000000000000000000000000008152600401610f39906137c0565b60405180910390fd5b6000600860008673ffffffffffffffffffffffffffffffffffffffff1673ffffffffffffffffffffffffffffffffffffffff168152602001908152602001600020905083816001019081610f9691906136a2565b50818160000181905550848160030160016101000a81548173ffffffffffffffffffffffffffffffffffffffff021916908373ffffffffffffffffffffffffffffffffffffffff16021790555060008160030160006101000a81548160ff0219169083151502179055504281600401819055506110138583611d4a565b61101d8284611d68565b6001600960008773ffffffffffffffffffffffffffffffffffffffff1673ffffffffffffffffffffffffffffffffffffffff16815260200190815260200160002060006101000a81548160ff021916908315150217905550817f300b832de7c9083100422c588f9614bbfa337a8c3440e3338067fe3bedc68be4858760006040516110aa939291906137e0565b60405180910390a25050505050565b60008060009054906101000a900473ffffffffffffffffffffffffffffffffffffffff16905090565b6060600280546110f190612ff5565b80601f016020809104026020016040519081016040528092919081815260200182805461111d90612ff5565b801561116a5780601f1061113f5761010080835404028352916020019161116a565b820191906000526020600020905b81548152906001019060200180831161114d57829003601f168201915b5050505050905090565b61117c6116ed565b6000600860008373ffffffffffffffffffffffffffffffffffffffff1673ffffffffffffffffffffffffffffffffffffffff1681526020019081526020016000209050600115158160030160009054906101000a900460ff16151514611217576040517f08c379a000000000000000000000000000000000000000000000000000000000815260040161120e9061386a565b60405180910390fd5b60008160030160006101000a81548160ff0219169083151502179055505050565b61124a61124361162c565b8383611e0c565b5050565b61125f61125961162c565b83611737565b61129e576040517f08c379a000000000000000000000000000000000000000000000000000000000815260040161129590613294565b60405180910390fd5b6112aa84848484611f78565b50505050565b60606112bb826115e1565b60006007600084815260200190815260200160002080546112db90612ff5565b80601f016020809104026020016040519081016040528092919081815260200182805461130790612ff5565b80156113545780601f1061132957610100808354040283529160200191611354565b820191906000526020600020905b81548152906001019060200180831161133757829003601f168201915b505050505090506000611365611fd4565b9050600081510361137a5781925050506113bd565b6000825111156113af5780826040516020016113979291906138c6565b604051602081830303815290604052925050506113bd565b6113b884611feb565b925050505b919050565b600a60009054906101000a900473ffffffffffffffffffffffffffffffffffffffff1681565b6000600660008473ffffffffffffffffffffffffffffffffffffffff1673ffffffffffffffffffffffffffffffffffffffff16815260200190815260200160002060008373ffffffffffffffffffffffffffffffffffffffff1673ffffffffffffffffffffffffffffffffffffffff16815260200190815260200160002060009054906101000a900460ff16905092915050565b611484611ac5565b600073ffffffffffffffffffffffffffffffffffffffff168173ffffffffffffffffffffffffffffffffffffffff16036114f3576040517f08c379a00000000000000000000000000000000000000000000000000000000081526004016114ea9061395c565b60405180910390fd5b6114fc81611be2565b50565b60007f80ac58cd000000000000000000000000000000000000000000000000000000007bffffffffffffffffffffffffffffffffffffffffffffffffffffffff1916827bffffffffffffffffffffffffffffffffffffffffffffffffffffffff191614806115ca57507f5b5e139f000000000000000000000000000000000000000000000000000000007bffffffffffffffffffffffffffffffffffffffffffffffffffffffff1916827bffffffffffffffffffffffffffffffffffffffffffffffffffffffff1916145b806115da57506115d982612053565b5b9050919050565b6115ea81611ca6565b611629576040517f08c379a000000000000000000000000000000000000000000000000000000000815260040161162090613300565b60405180910390fd5b50565b600033905090565b816005600083815260200190815260200160002060006101000a81548173ffffffffffffffffffffffffffffffffffffffff021916908373ffffffffffffffffffffffffffffffffffffffff160217905550808273ffffffffffffffffffffffffffffffffffffffff166116a783610b9c565b73ffffffffffffffffffffffffffffffffffffffff167f8c5be1e5ebec7d5bd14f71427d1e84f3dd0314c0f7b2291e5b200ac8c7c3b92560405160405180910390a45050565b6116f5610b86565b15611735576040517f08c379a000000000000000000000000000000000000000000000000000000000815260040161172c906139c8565b60405180910390fd5b565b60008061174383610b9c565b90508073ffffffffffffffffffffffffffffffffffffffff168473ffffffffffffffffffffffffffffffffffffffff161480611785575061178481856113e8565b5b806117c357508373ffffffffffffffffffffffffffffffffffffffff166117ab846105d2565b73ffffffffffffffffffffffffffffffffffffffff16145b91505092915050565b8273ffffffffffffffffffffffffffffffffffffffff166117ec82610b9c565b73ffffffffffffffffffffffffffffffffffffffff1614611842576040517f08c379a000000000000000000000000000000000000000000000000000000000815260040161183990613a5a565b60405180910390fd5b600073ffffffffffffffffffffffffffffffffffffffff168273ffffffffffffffffffffffffffffffffffffffff16036118b1576040517f08c379a00000000000000000000000000000000000000000000000000000000081526004016118a890613aec565b60405180910390fd5b6118be83838360016120bd565b8273ffffffffffffffffffffffffffffffffffffffff166118de82610b9c565b73ffffffffffffffffffffffffffffffffffffffff1614611934576040517f08c379a000000000000000000000000000000000000000000000000000000000815260040161192b90613a5a565b60405180910390fd5b6005600082815260200190815260200160002060006101000a81549073ffffffffffffffffffffffffffffffffffffffff02191690556001600460008573ffffffffffffffffffffffffffffffffffffffff1673ffffffffffffffffffffffffffffffffffffffff168152602001908152602001600020600082825403925050819055506001600460008473ffffffffffffffffffffffffffffffffffffffff1673ffffffffffffffffffffffffffffffffffffffff16815260200190815260200160002060008282540192505081905550816003600083815260200190815260200160002060006101000a81548173ffffffffffffffffffffffffffffffffffffffff021916908373ffffffffffffffffffffffffffffffffffffffff160217905550808273ffffffffffffffffffffffffffffffffffffffff168473ffffffffffffffffffffffffffffffffffffffff167fddf252ad1be2c89b69c2b068fc378daa952ba7f163c4a11628f55a4df523b3ef60405160405180910390a4611ac083838360016120c3565b505050565b611acd61162c565b73ffffffffffffffffffffffffffffffffffffffff16611aeb6110b9565b73ffffffffffffffffffffffffffffffffffffffff1614611b41576040517f08c379a0000000000000000000000000000000000000000000000000000000008152600401611b3890613b58565b60405180910390fd5b565b611b4b6120c9565b60008060146101000a81548160ff0219169083151502179055507f5db9ee0a495bf2e6ff9c91a7834c1ba4fdd244a5e8aa4e537bd38aeae4b073aa611b8e61162c565b604051611b9b91906129c8565b60405180910390a1565b60006003600083815260200190815260200160002060009054906101000a900473ffffffffffffffffffffffffffffffffffffffff169050919050565b60008060009054906101000a900473ffffffffffffffffffffffffffffffffffffffff169050816000806101000a81548173ffffffffffffffffffffffffffffffffffffffff021916908373ffffffffffffffffffffffffffffffffffffffff1602179055508173ffffffffffffffffffffffffffffffffffffffff168173ffffffffffffffffffffffffffffffffffffffff167f8be0079c531659141344cd1fd0a4f28419497f9722a3daafe3b4186f6b6457e060405160405180910390a35050565b60008073ffffffffffffffffffffffffffffffffffffffff16611cc883611ba5565b73ffffffffffffffffffffffffffffffffffffffff1614159050919050565b611cef6116ed565b6001600060146101000a81548160ff0219169083151502179055507f62e78cea01bee320cd4e420270b5ea74000d11b0c9f74754ebdbfc544b05a258611d3361162c565b604051611d4091906129c8565b60405180910390a1565b611d64828260405180602001604052806000815250612112565b5050565b611d7182611ca6565b611db0576040517f08c379a0000000000000000000000000000000000000000000000000000000008152600401611da790613bea565b60405180910390fd5b80600760008481526020019081526020016000209081611dd091906136a2565b507ff8e1a15aba9398e019f0b49df1a4fde98ee17ae345cb5f6b5e2c27f5033e8ce782604051611e009190612c07565b60405180910390a15050565b8173ffffffffffffffffffffffffffffffffffffffff168373ffffffffffffffffffffffffffffffffffffffff1603611e7a576040517f08c379a0000000000000000000000000000000000000000000000000000000008152600401611e7190613c56565b60405180910390fd5b80600660008573ffffffffffffffffffffffffffffffffffffffff1673ffffffffffffffffffffffffffffffffffffffff16815260200190815260200160002060008473ffffffffffffffffffffffffffffffffffffffff1673ffffffffffffffffffffffffffffffffffffffff16815260200190815260200160002060006101000a81548160ff0219169083151502179055508173ffffffffffffffffffffffffffffffffffffffff168373ffffffffffffffffffffffffffffffffffffffff167f17307eab39ab6107e8899845ad3d59bd9653f200f220920489ca2b5937696c3183604051611f6b9190612857565b60405180910390a3505050565b611f838484846117cc565b611f8f8484848461216d565b611fce576040517f08c379a0000000000000000000000000000000000000000000000000000000008152600401611fc590613ce8565b60405180910390fd5b50505050565b606060405180602001604052806000815250905090565b6060611ff6826115e1565b6000612000611fd4565b90506000815111612020576040518060200160405280600081525061204b565b8061202a846122f4565b60405160200161203b9291906138c6565b6040516020818303038152906040525b915050919050565b60007f01ffc9a7000000000000000000000000000000000000000000000000000000007bffffffffffffffffffffffffffffffffffffffffffffffffffffffff1916827bffffffffffffffffffffffffffffffffffffffffffffffffffffffff1916149050919050565b50505050565b50505050565b6120d1610b86565b612110576040517f08c379a000000000000000000000000000000000000000000000000000000000815260040161210790613d54565b60405180910390fd5b565b61211c83836123c2565b612129600084848461216d565b612168576040517f08c379a000000000000000000000000000000000000000000000000000000000815260040161215f90613ce8565b60405180910390fd5b505050565b600061218e8473ffffffffffffffffffffffffffffffffffffffff166125df565b156122e7578373ffffffffffffffffffffffffffffffffffffffff1663150b7a026121b761162c565b8786866040518563ffffffff1660e01b81526004016121d99493929190613dc9565b6020604051808303816000875af192505050801561221557506040513d601f19601f820116820180604052508101906122129190613e2a565b60015b612297573d8060008114612245576040519150601f19603f3d011682016040523d82523d6000602084013e61224a565b606091505b50600081510361228f576040517f08c379a000000000000000000000000000000000000000000000000000000000815260040161228690613ce8565b60405180910390fd5b805181602001fd5b63150b7a0260e01b7bffffffffffffffffffffffffffffffffffffffffffffffffffffffff1916817bffffffffffffffffffffffffffffffffffffffffffffffffffffffff1916149150506122ec565b600190505b949350505050565b60606000600161230384612602565b01905060008167ffffffffffffffff81111561232257612321612c2c565b5b6040519080825280601f01601f1916602001820160405280156123545781602001600182028036833780820191505090505b509050600082602001820190505b6001156123b7578080600190039150507f3031323334353637383961626364656600000000000000000000000000000000600a86061a8153600a85816123ab576123aa613e57565b5b04945060008503612362575b819350505050919050565b600073ffffffffffffffffffffffffffffffffffffffff168273ffffffffffffffffffffffffffffffffffffffff1603612431576040517f08c379a000000000000000000000000000000000000000000000000000000000815260040161242890613ed2565b60405180910390fd5b61243a81611ca6565b1561247a576040517f08c379a000000000000000000000000000000000000000000000000000000000815260040161247190613f3e565b60405180910390fd5b6124886000838360016120bd565b61249181611ca6565b156124d1576040517f08c379a00000000000000000000000000000000000000000000000000000000081526004016124c890613f3e565b60405180910390fd5b6001600460008473ffffffffffffffffffffffffffffffffffffffff1673ffffffffffffffffffffffffffffffffffffffff16815260200190815260200160002060008282540192505081905550816003600083815260200190815260200160002060006101000a81548173ffffffffffffffffffffffffffffffffffffffff021916908373ffffffffffffffffffffffffffffffffffffffff160217905550808273ffffffffffffffffffffffffffffffffffffffff16600073ffffffffffffffffffffffffffffffffffffffff167fddf252ad1be2c89b69c2b068fc378daa952ba7f163c4a11628f55a4df523b3ef60405160405180910390a46125db6000838360016120c3565b5050565b6000808273ffffffffffffffffffffffffffffffffffffffff163b119050919050565b600080600090507a184f03e93ff9f4daa797ed6e38ed64bf6a1f0100000000000000008310612660577a184f03e93ff9f4daa797ed6e38ed64bf6a1f010000000000000000838161265657612655613e57565b5b0492506040810190505b6d04ee2d6d415b85acef8100000000831061269d576d04ee2d6d415b85acef8100000000838161269357612692613e57565b5b0492506020810190505b662386f26fc1000083106126cc57662386f26fc1000083816126c2576126c1613e57565b5b0492506010810190505b6305f5e10083106126f5576305f5e10083816126eb576126ea613e57565b5b0492506008810190505b612710831061271a5761271083816127105761270f613e57565b5b0492506004810190505b6064831061273d576064838161273357612732613e57565b5b0492506002810190505b600a831061274c576001810190505b80915050919050565b6040518060c00160405280600081526020016060815260200160608152602001600015158152602001600073ffffffffffffffffffffffffffffffffffffffff168152602001600081525090565b6000604051905090565b600080fd5b600080fd5b60007fffffffff0000000000000000000000000000000000000000000000000000000082169050919050565b6127ec816127b7565b81146127f757600080fd5b50565b600081359050612809816127e3565b92915050565b600060208284031215612825576128246127ad565b5b6000612833848285016127fa565b91505092915050565b60008115159050919050565b6128518161283c565b82525050565b600060208201905061286c6000830184612848565b92915050565b600081519050919050565b600082825260208201905092915050565b60005b838110156128ac578082015181840152602081019050612891565b60008484015250505050565b6000601f19601f8301169050919050565b60006128d482612872565b6128de818561287d565b93506128ee81856020860161288e565b6128f7816128b8565b840191505092915050565b6000602082019050818103600083015261291c81846128c9565b905092915050565b6000819050919050565b61293781612924565b811461294257600080fd5b50565b6000813590506129548161292e565b92915050565b6000602082840312156129705761296f6127ad565b5b600061297e84828501612945565b91505092915050565b600073ffffffffffffffffffffffffffffffffffffffff82169050919050565b60006129b282612987565b9050919050565b6129c2816129a7565b82525050565b60006020820190506129dd60008301846129b9565b92915050565b6129ec816129a7565b81146129f757600080fd5b50565b600081359050612a09816129e3565b92915050565b60008060408385031215612a2657612a256127ad565b5b6000612a34858286016129fa565b9250506020612a4585828601612945565b9150509250929050565b600060208284031215612a6557612a646127ad565b5b6000612a73848285016129fa565b91505092915050565b612a8581612924565b82525050565b600082825260208201905092915050565b6000612aa782612872565b612ab18185612a8b565b9350612ac181856020860161288e565b612aca816128b8565b840191505092915050565b612ade8161283c565b82525050565b612aed816129a7565b82525050565b600060c083016000830151612b0b6000860182612a7c565b5060208301518482036020860152612b238282612a9c565b91505060408301518482036040860152612b3d8282612a9c565b9150506060830151612b526060860182612ad5565b506080830151612b656080860182612ae4565b5060a0830151612b7860a0860182612a7c565b508091505092915050565b60006020820190508181036000830152612b9d8184612af3565b905092915050565b600080600060608486031215612bbe57612bbd6127ad565b5b6000612bcc868287016129fa565b9350506020612bdd868287016129fa565b9250506040612bee86828701612945565b9150509250925092565b612c0181612924565b82525050565b6000602082019050612c1c6000830184612bf8565b92915050565b600080fd5b600080fd5b7f4e487b7100000000000000000000000000000000000000000000000000000000600052604160045260246000fd5b612c64826128b8565b810181811067ffffffffffffffff82111715612c8357612c82612c2c565b5b80604052505050565b6000612c966127a3565b9050612ca28282612c5b565b919050565b600067ffffffffffffffff821115612cc257612cc1612c2c565b5b612ccb826128b8565b9050602081019050919050565b82818337600083830152505050565b6000612cfa612cf584612ca7565b612c8c565b905082815260208101848484011115612d1657612d15612c27565b5b612d21848285612cd8565b509392505050565b600082601f830112612d3e57612d3d612c22565b5b8135612d4e848260208601612ce7565b91505092915050565b60008060008060808587031215612d7157612d706127ad565b5b6000612d7f878288016129fa565b945050602085013567ffffffffffffffff811115612da057612d9f6127b2565b5b612dac87828801612d29565b935050604085013567ffffffffffffffff811115612dcd57612dcc6127b2565b5b612dd987828801612d29565b9250506060612dea87828801612945565b91505092959194509250565b612dff8161283c565b8114612e0a57600080fd5b50565b600081359050612e1c81612df6565b92915050565b60008060408385031215612e3957612e386127ad565b5b6000612e47858286016129fa565b9250506020612e5885828601612e0d565b9150509250929050565b600067ffffffffffffffff821115612e7d57612e7c612c2c565b5b612e86826128b8565b9050602081019050919050565b6000612ea6612ea184612e62565b612c8c565b905082815260208101848484011115612ec257612ec1612c27565b5b612ecd848285612cd8565b509392505050565b600082601f830112612eea57612ee9612c22565b5b8135612efa848260208601612e93565b91505092915050565b60008060008060808587031215612f1d57612f1c6127ad565b5b6000612f2b878288016129fa565b9450506020612f3c878288016129fa565b9350506040612f4d87828801612945565b925050606085013567ffffffffffffffff811115612f6e57612f6d6127b2565b5b612f7a87828801612ed5565b91505092959194509250565b60008060408385031215612f9d57612f9c6127ad565b5b6000612fab858286016129fa565b9250506020612fbc858286016129fa565b9150509250929050565b7f4e487b7100000000000000000000000000000000000000000000000000000000600052602260045260246000fd5b6000600282049050600182168061300d57607f821691505b6020821081036130205761301f612fc6565b5b50919050565b7f4552433732313a20617070726f76616c20746f2063757272656e74206f776e6560008201527f7200000000000000000000000000000000000000000000000000000000000000602082015250565b600061308260218361287d565b915061308d82613026565b604082019050919050565b600060208201905081810360008301526130b181613075565b9050919050565b7f4552433732313a20617070726f76652063616c6c6572206973206e6f7420746f60008201527f6b656e206f776e6572206f7220617070726f76656420666f7220616c6c000000602082015250565b6000613114603d8361287d565b915061311f826130b8565b604082019050919050565b6000602082019050818103600083015261314381613107565b9050919050565b7f416c7265616479206c6f636b6564000000000000000000000000000000000000600082015250565b6000613180600e8361287d565b915061318b8261314a565b602082019050919050565b600060208201905081810360008301526131af81613173565b9050919050565b7f55736572534254206e6f74207265676973746572656421000000000000000000600082015250565b60006131ec60178361287d565b91506131f7826131b6565b602082019050919050565b6000602082019050818103600083015261321b816131df565b9050919050565b7f4552433732313a2063616c6c6572206973206e6f7420746f6b656e206f776e6560008201527f72206f7220617070726f76656400000000000000000000000000000000000000602082015250565b600061327e602d8361287d565b915061328982613222565b604082019050919050565b600060208201905081810360008301526132ad81613271565b9050919050565b7f4552433732313a20696e76616c696420746f6b656e2049440000000000000000600082015250565b60006132ea60188361287d565b91506132f5826132b4565b602082019050919050565b60006020820190508181036000830152613319816132dd565b9050919050565b7f4552433732313a2061646472657373207a65726f206973206e6f74206120766160008201527f6c6964206f776e65720000000000000000000000000000000000000000000000602082015250565b600061337c60298361287d565b915061338782613320565b604082019050919050565b600060208201905081810360008301526133ab8161336f565b9050919050565b7f546f6b656e20646f65736e277420657869737400000000000000000000000000600082015250565b60006133e860138361287d565b91506133f3826133b2565b602082019050919050565b60006020820190508181036000830152613417816133db565b9050919050565b7f43616e2774207570646174652e20546f6b656e206973206c6f636b6564000000600082015250565b6000613454601d8361287d565b915061345f8261341e565b602082019050919050565b6000602082019050818103600083015261348381613447565b9050919050565b7f4e6f742074686520636f7272656374206f776e65720000000000000000000000600082015250565b60006134c060158361287d565b91506134cb8261348a565b602082019050919050565b600060208201905081810360008301526134ef816134b3565b9050919050565b60008190508160005260206000209050919050565b60006020601f8301049050919050565b600082821b905092915050565b6000600883026135587fffffffffffffffffffffffffffffffffffffffffffffffffffffffffffffffff8261351b565b613562868361351b565b95508019841693508086168417925050509392505050565b6000819050919050565b600061359f61359a61359584612924565b61357a565b612924565b9050919050565b6000819050919050565b6135b983613584565b6135cd6135c5826135a6565b848454613528565b825550505050565b600090565b6135e26135d5565b6135ed8184846135b0565b505050565b5b81811015613611576136066000826135da565b6001810190506135f3565b5050565b601f82111561365657613627816134f6565b6136308461350b565b8101602085101561363f578190505b61365361364b8561350b565b8301826135f2565b50505b505050565b600082821c905092915050565b60006136796000198460080261365b565b1980831691505092915050565b60006136928383613668565b9150826002028217905092915050565b6136ab82612872565b67ffffffffffffffff8111156136c4576136c3612c2c565b5b6136ce8254612ff5565b6136d9828285613615565b600060209050601f83116001811461370c57600084156136fa578287015190505b6137048582613686565b86555061376c565b601f19841661371a866134f6565b60005b828110156137425784890151825560018201915060208501945060208101905061371d565b8683101561375f578489015161375b601f891682613668565b8355505b6001600288020188555050505b505050505050565b7f5573657220616c72656179207265676973746572656400000000000000000000600082015250565b60006137aa60168361287d565b91506137b582613774565b602082019050919050565b600060208201905081810360008301526137d98161379d565b9050919050565b600060608201905081810360008301526137fa81866128c9565b905061380960208301856129b9565b6138166040830184612848565b949350505050565b7f416c726561647920756e6c6f636b656400000000000000000000000000000000600082015250565b600061385460108361287d565b915061385f8261381e565b602082019050919050565b6000602082019050818103600083015261388381613847565b9050919050565b600081905092915050565b60006138a082612872565b6138aa818561388a565b93506138ba81856020860161288e565b80840191505092915050565b60006138d28285613895565b91506138de8284613895565b91508190509392505050565b7f4f776e61626c653a206e6577206f776e657220697320746865207a65726f206160008201527f6464726573730000000000000000000000000000000000000000000000000000602082015250565b600061394660268361287d565b9150613951826138ea565b604082019050919050565b6000602082019050818103600083015261397581613939565b9050919050565b7f5061757361626c653a2070617573656400000000000000000000000000000000600082015250565b60006139b260108361287d565b91506139bd8261397c565b602082019050919050565b600060208201905081810360008301526139e1816139a5565b9050919050565b7f4552433732313a207472616e736665722066726f6d20696e636f72726563742060008201527f6f776e6572000000000000000000000000000000000000000000000000000000602082015250565b6000613a4460258361287d565b9150613a4f826139e8565b604082019050919050565b60006020820190508181036000830152613a7381613a37565b9050919050565b7f4552433732313a207472616e7366657220746f20746865207a65726f2061646460008201527f7265737300000000000000000000000000000000000000000000000000000000602082015250565b6000613ad660248361287d565b9150613ae182613a7a565b604082019050919050565b60006020820190508181036000830152613b0581613ac9565b9050919050565b7f4f776e61626c653a2063616c6c6572206973206e6f7420746865206f776e6572600082015250565b6000613b4260208361287d565b9150613b4d82613b0c565b602082019050919050565b60006020820190508181036000830152613b7181613b35565b9050919050565b7f45524337323155524953746f726167653a2055524920736574206f66206e6f6e60008201527f6578697374656e7420746f6b656e000000000000000000000000000000000000602082015250565b6000613bd4602e8361287d565b9150613bdf82613b78565b604082019050919050565b60006020820190508181036000830152613c0381613bc7565b9050919050565b7f4552433732313a20617070726f766520746f2063616c6c657200000000000000600082015250565b6000613c4060198361287d565b9150613c4b82613c0a565b602082019050919050565b60006020820190508181036000830152613c6f81613c33565b9050919050565b7f4552433732313a207472616e7366657220746f206e6f6e20455243373231526560008201527f63656976657220696d706c656d656e7465720000000000000000000000000000602082015250565b6000613cd260328361287d565b9150613cdd82613c76565b604082019050919050565b60006020820190508181036000830152613d0181613cc5565b9050919050565b7f5061757361626c653a206e6f7420706175736564000000000000000000000000600082015250565b6000613d3e60148361287d565b9150613d4982613d08565b602082019050919050565b60006020820190508181036000830152613d6d81613d31565b9050919050565b600081519050919050565b600082825260208201905092915050565b6000613d9b82613d74565b613da58185613d7f565b9350613db581856020860161288e565b613dbe816128b8565b840191505092915050565b6000608082019050613dde60008301876129b9565b613deb60208301866129b9565b613df86040830185612bf8565b8181036060830152613e0a8184613d90565b905095945050505050565b600081519050613e24816127e3565b92915050565b600060208284031215613e4057613e3f6127ad565b5b6000613e4e84828501613e15565b91505092915050565b7f4e487b7100000000000000000000000000000000000000000000000000000000600052601260045260246000fd5b7f4552433732313a206d696e7420746f20746865207a65726f2061646472657373600082015250565b6000613ebc60208361287d565b9150613ec782613e86565b602082019050919050565b60006020820190508181036000830152613eeb81613eaf565b9050919050565b7f4552433732313a20746f6b656e20616c7265616479206d696e74656400000000600082015250565b6000613f28601c8361287d565b9150613f3382613ef2565b602082019050919050565b60006020820190508181036000830152613f5781613f1b565b905091905056fea2646970667358221220a68bc9a01e3b37a8883384df54df2591ceaddbbf63228c406bc9380723d26d6f64736f6c63430008130033",
  "immutableReferences": {},
  "source": "// SPDX-License-Identifier: GPL-3.0\n\npragma solidity >=0.8.2 <0.9.0;\n\nimport \"@openzeppelin/contracts/token/ERC721/extensions/ERC721Enumerable.sol\";\nimport \"@openzeppelin/contracts/access/Ownable.sol\";\nimport \"@openzeppelin/contracts/token/ERC721/extensions/ERC721URIStorage.sol\";\nimport \"@openzeppelin/contracts/security/Pausable.sol\";\n\ncontract UserSBT is Ownable, Pausable, ERC721URIStorage{\n\n\n    struct TokenData {\n        uint256 id;\n        string name;\n        string ipfsHash;\n        bool locked;\n        address owner;\n        uint256 createdAt;\n    }\n\n    mapping(address => TokenData) private tokenData;\n    mapping(address => bool) private userRegistered;\n\n    address public contractOwner;\n\n    constructor() ERC721(\"Soul Bound Token\", \"UserSBT\") {\n      contractOwner = msg.sender;\n    }\n\n    event UserCreated(\n        uint256 indexed id,\n        string name,\n        address owner,\n        bool locked\n    );\n\n    uint256 private constant MAX_LIMIT = 1000;\n\n    function mint(\n        address to,\n        string memory name,\n        string memory tokenUri,\n        uint256 id\n    ) external whenNotPaused {\n        require(userRegistered[to] != true, \"User alreay registered\");\n\n        TokenData storage data = tokenData[to];\n        data.name = name;\n        data.id = id;\n        data.owner = to;\n        data.locked = false;\n        data.createdAt = block.timestamp;\n\n        _safeMint(to, id);\n        _setTokenURI(id, tokenUri);\n        \n        userRegistered[to] = true;\n        emit UserCreated(id, name,  to, false);\n    }\n\n    function userExists(address owner) external view whenNotPaused returns(bool) {\n        return userRegistered[owner];\n    }\n\n    function updateMetadataHash(\n        address owner,\n        string memory name,\n        string memory ipfsHash,\n        uint256 id\n    ) external whenNotPaused{\n        require(_exists(id), \"Token doesn't exist\");\n        TokenData storage _data = tokenData[owner];\n        require(_data.locked == false, \"Can't update. Token is locked\");\n        require(_data.owner == owner, \"Not the correct owner\");\n        _data.name = name;\n        _data.ipfsHash = ipfsHash;\n    }\n\n    function lockToken(address owner) external whenNotPaused {\n        TokenData storage _data = tokenData[owner];\n        require(_data.locked == false, \"Already locked\");\n        _data.locked = true;\n    }\n\n    function unlockToken(address owner) external  whenNotPaused {\n        TokenData storage _data = tokenData[owner];\n        require(_data.locked == true, \"Already unlocked\");\n        _data.locked = false;\n    }\n\n    function getTokenData(address owner)\n        external\n        view\n        whenNotPaused\n        returns (TokenData memory)\n    {\n      require(userRegistered[owner] == true, \"UserSBT not registered!\");\n        TokenData memory _data = tokenData[owner];\n        return _data;\n    }\n\n    function pause() external onlyOwner {\n        _pause();\n    }\n\n    function unpause() external onlyOwner {\n        _unpause();\n    }\n}\n",
  "sourcePath": "/home/astara/Code/web/trimail/contracts/UserSBT.sol",
  "compiler": {
    "name": "solc",
    "version": "0.8.19+commit.7dd6d404.Emscripten.clang"
  },
  "schemaVersion": "3.4.13",
  "updatedAt": "2023-06-20T22:40:19.771Z",
  "networkType": "ethereum",
  "devdoc": {
    "events": {
      "Approval(address,address,uint256)": {
        "details": "Emitted when `owner` enables `approved` to manage the `tokenId` token."
      },
      "ApprovalForAll(address,address,bool)": {
        "details": "Emitted when `owner` enables or disables (`approved`) `operator` to manage all of its assets."
      },
      "BatchMetadataUpdate(uint256,uint256)": {
        "details": "This event emits when the metadata of a range of tokens is changed. So that the third-party platforms such as NFT market could timely update the images and related attributes of the NFTs."
      },
      "MetadataUpdate(uint256)": {
        "details": "This event emits when the metadata of a token is changed. So that the third-party platforms such as NFT market could timely update the images and related attributes of the NFT."
      },
      "Paused(address)": {
        "details": "Emitted when the pause is triggered by `account`."
      },
      "Transfer(address,address,uint256)": {
        "details": "Emitted when `tokenId` token is transferred from `from` to `to`."
      },
      "Unpaused(address)": {
        "details": "Emitted when the pause is lifted by `account`."
      }
    },
    "kind": "dev",
    "methods": {
      "approve(address,uint256)": {
        "details": "See {IERC721-approve}."
      },
      "balanceOf(address)": {
        "details": "See {IERC721-balanceOf}."
      },
      "getApproved(uint256)": {
        "details": "See {IERC721-getApproved}."
      },
      "isApprovedForAll(address,address)": {
        "details": "See {IERC721-isApprovedForAll}."
      },
      "name()": {
        "details": "See {IERC721Metadata-name}."
      },
      "owner()": {
        "details": "Returns the address of the current owner."
      },
      "ownerOf(uint256)": {
        "details": "See {IERC721-ownerOf}."
      },
      "paused()": {
        "details": "Returns true if the contract is paused, and false otherwise."
      },
      "renounceOwnership()": {
        "details": "Leaves the contract without owner. It will not be possible to call `onlyOwner` functions. Can only be called by the current owner. NOTE: Renouncing ownership will leave the contract without an owner, thereby disabling any functionality that is only available to the owner."
      },
      "safeTransferFrom(address,address,uint256)": {
        "details": "See {IERC721-safeTransferFrom}."
      },
      "safeTransferFrom(address,address,uint256,bytes)": {
        "details": "See {IERC721-safeTransferFrom}."
      },
      "setApprovalForAll(address,bool)": {
        "details": "See {IERC721-setApprovalForAll}."
      },
      "supportsInterface(bytes4)": {
        "details": "See {IERC165-supportsInterface}"
      },
      "symbol()": {
        "details": "See {IERC721Metadata-symbol}."
      },
      "tokenURI(uint256)": {
        "details": "See {IERC721Metadata-tokenURI}."
      },
      "transferFrom(address,address,uint256)": {
        "details": "See {IERC721-transferFrom}."
      },
      "transferOwnership(address)": {
        "details": "Transfers ownership of the contract to a new account (`newOwner`). Can only be called by the current owner."
      }
    },
    "version": 1
  },
  "userdoc": {
    "kind": "user",
    "methods": {},
    "version": 1
  }
}